{
  "_format": "hh-sol-artifact-1",
  "contractName": "PancakeV3PoolDeployer",
  "sourceName": "contracts/PancakeV3PoolDeployer.sol",
  "abi": [
    {
      "inputs": [
        {
          "internalType": "address",
          "name": "factory",
          "type": "address"
        },
        {
          "internalType": "address",
          "name": "token0",
          "type": "address"
        },
        {
          "internalType": "address",
          "name": "token1",
          "type": "address"
        },
        {
          "internalType": "uint24",
          "name": "fee",
          "type": "uint24"
        },
        {
          "internalType": "int24",
          "name": "tickSpacing",
          "type": "int24"
        }
      ],
      "name": "deploy",
      "outputs": [
        {
          "internalType": "address",
          "name": "pool",
          "type": "address"
        }
      ],
      "stateMutability": "nonpayable",
      "type": "function"
    },
    {
      "inputs": [],
      "name": "factoryAddress",
      "outputs": [
        {
          "internalType": "address",
          "name": "",
          "type": "address"
        }
      ],
      "stateMutability": "view",
      "type": "function"
    },
    {
      "inputs": [],
      "name": "parameters",
      "outputs": [
        {
          "internalType": "address",
          "name": "factory",
          "type": "address"
        },
        {
          "internalType": "address",
          "name": "token0",
          "type": "address"
        },
        {
          "internalType": "address",
          "name": "token1",
          "type": "address"
        },
        {
          "internalType": "uint24",
          "name": "fee",
          "type": "uint24"
        },
        {
          "internalType": "int24",
          "name": "tickSpacing",
          "type": "int24"
        }
      ],
      "stateMutability": "view",
      "type": "function"
    },
    {
      "inputs": [
        {
          "internalType": "address",
          "name": "_factoryAddress",
          "type": "address"
        }
      ],
      "name": "setFactoryAddress",
      "outputs": [],
      "stateMutability": "nonpayable",
      "type": "function"
    }
  ],
  "bytecode": "0x608060405234801561001057600080fd5b50615e0f806100206000396000f3fe608060405234801561001057600080fd5b506004361061004c5760003560e01c806383c17c55146100515780638903573014610079578063966dae0e146100c3578063fad5359f146100e7575b600080fd5b6100776004803603602081101561006757600080fd5b50356001600160a01b0316610131565b005b6100816101a7565b604080516001600160a01b0396871681529486166020860152929094168383015262ffffff16606083015260029290920b608082015290519081900360a00190f35b6100cb6101dd565b604080516001600160a01b039092168252519081900360200190f35b6100cb600480360360a08110156100fd57600080fd5b506001600160a01b03813581169160208101358216916040820135169062ffffff606082013516906080013560020b6101ec565b6003546001600160a01b031615610185576040805162461bcd60e51b8152602060048201526013602482015272185b1c9958591e481a5b9a5d1a585b1a5e9959606a1b604482015290519081900360640190fd5b600380546001600160a01b0319166001600160a01b0392909216919091179055565b600054600154600280546001600160a01b03938416939283169281169162ffffff600160a01b83041691600160b81b9004900b85565b6003546001600160a01b031681565b6003546000906001600160a01b0316331461024d576040805162461bcd60e51b815260206004820152601c60248201527b6f6e6c7920666163746f72792063616e2063616c6c206465706c6f7960201b604482015290519081900360640190fd5b6040805160a0810182526001600160a01b03888116808352888216602080850182905292891684860181905262ffffff898116606080880182905260028b810b6080998a01819052600080546001600160a01b03199081169099179055600180548916881790558154909716851762ffffff60a01b1916600160a01b84021762ffffff60b81b1916600160b81b97820b90941696909602929092179094558651808601939093528287019190915281810192909252845180820390920182529092019283905281519101209061032290610379565b8190604051809103906000f5905080158015610342573d6000803e3d6000fd5b50600080546001600160a01b0319908116909155600180549091169055600280546001600160d01b03191690559695505050505050565b615a7c806103878339019056fe6101406040523480156200001257600080fd5b506000336001600160a01b031663890357306040518163ffffffff1660e01b815260040160a06040518083038186803b1580156200004f57600080fd5b505afa15801562000064573d6000803e3d6000fd5b505050506040513d60a08110156200007b57600080fd5b50805160208083015160408401516060808601516080968701516001600160e81b031960e892831b1660e0526001600160601b031993831b841660c05293821b831660a05294901b16909352600283810b900b90911b61010052909150620000ee90829062002e5f62000106821b17901c565b60801b6001600160801b031916610120525062000174565b60008082600281900b620d89e719816200011c57fe5b05029050600083600281900b620d89e8816200013457fe5b0502905060008460020b83830360020b816200014c57fe5b0560010190508062ffffff166001600160801b038016816200016a57fe5b0495945050505050565b60805160601c60a05160601c60c05160601c60e05160e81c6101005160e81c6101205160801c61582f6200024d600039806120ff5280614d575280614d8e525080610c4e5280612aea5280614dc25280614df4525080610d3d5280611ad35280611b0a5280612b325280612d015280612d435280612d8a5280612dd15250806112b25280611b8d5280611ff452806123585280612b0e528061409d5250806108a452806113e05280611b5c5280611f8e52806122d25280613f54525080612191528061284452806129d752806129fb525061582f6000f3fe608060405234801561001057600080fd5b50600436106101545760003560e01c80630dfe168114610159578063128acb081461017d5780631a6865021461022a5780631ad8b03b1461024e578063252c09d71461028557806332148f67146102dc5780633850c7bd146102ff5780633c8a7d8d1461035b57806346141319146103fb578063490e6cbc146104155780634f1eb3d81461049f578063514ea4bf146104f05780635339c29614610549578063540d49181461056957806370cf754a1461057157806385b6672914610579578063883bdbfd146105b6578063a34123a7146106bd578063a38807f2146106f7578063b0d0d21114610752578063c45a01551461077d578063cc7e7fa214610785578063d0c93a7c146107ab578063d21220a7146107ca578063ddca3f43146107d2578063f3058399146107f2578063f30dba93146107fa578063f637731d1461087c575b600080fd5b6101616108a2565b604080516001600160a01b039092168252519081900360200190f35b610211600480360360a081101561019357600080fd5b6001600160a01b0382358116926020810135151592604082013592606083013516919081019060a081016080820135600160201b8111156101d357600080fd5b8201836020820111156101e557600080fd5b803590602001918460018302840111600160201b8311171561020657600080fd5b5090925090506108c6565b6040805192835260208301919091528051918290030190f35b6102326115bf565b604080516001600160801b039092168252519081900360200190f35b6102566115ce565b60405180836001600160801b03168152602001826001600160801b031681526020019250505060405180910390f35b6102a26004803603602081101561029b57600080fd5b50356115e8565b6040805163ffffffff909516855260069390930b60208501526001600160a01b039091168383015215156060830152519081900360800190f35b6102fd600480360360208110156102f257600080fd5b503561ffff1661162d565b005b61030761171f565b604080516001600160a01b03909816885260029690960b602088015261ffff9485168787015292841660608701529216608085015263ffffffff90911660a0840152151560c0830152519081900360e00190f35b610211600480360360a081101561037157600080fd5b6001600160a01b03823516916020810135600290810b92604083013590910b916001600160801b036060820135169181019060a081016080820135600160201b8111156103bd57600080fd5b8201836020820111156103cf57600080fd5b803590602001918460018302840111600160201b831117156103f057600080fd5b509092509050611774565b610403611a32565b60408051918252519081900360200190f35b6102fd6004803603608081101561042b57600080fd5b6001600160a01b038235169160208101359160408201359190810190608081016060820135600160201b81111561046157600080fd5b82018360208201111561047357600080fd5b803590602001918460018302840111600160201b8311171561049457600080fd5b509092509050611a38565b610256600480360360a08110156104b557600080fd5b506001600160a01b03813516906020810135600290810b91604081013590910b906001600160801b0360608201358116916080013516611e7f565b61050d6004803603602081101561050657600080fd5b503561209d565b604080516001600160801b0396871681526020810195909552848101939093529084166060840152909216608082015290519081900360a00190f35b6104036004803603602081101561055f57600080fd5b503560010b6120da565b6101616120ec565b6102326120fd565b6102566004803603606081101561058f57600080fd5b506001600160a01b03813516906001600160801b0360208201358116916040013516612121565b610624600480360360208110156105cc57600080fd5b810190602081018135600160201b8111156105e657600080fd5b8201836020820111156105f857600080fd5b803590602001918460208302840111600160201b8311171561061957600080fd5b5090925090506123f0565b604051808060200180602001838103835285818151815260200191508051906020019060200280838360005b83811015610668578181015183820152602001610650565b50505050905001838103825284818151815260200191508051906020019060200280838360005b838110156106a757818101518382015260200161068f565b5050505090500194505050505060405180910390f35b610211600480360360608110156106d357600080fd5b508035600290810b91602081013590910b90604001356001600160801b0316612475565b6107216004803603604081101561070d57600080fd5b508035600290810b9160200135900b6125f1565b6040805160069490940b84526001600160a01b03909216602084015263ffffffff1682820152519081900360600190f35b6102fd6004803603604081101561076857600080fd5b5063ffffffff813581169160200135166127d9565b6101616129d5565b6102fd6004803603602081101561079b57600080fd5b50356001600160a01b03166129f9565b6107b3612ae8565b6040805160029290920b8252519081900360200190f35b610161612b0c565b6107da612b30565b6040805162ffffff9092168252519081900360200190f35b610403612b54565b61081a6004803603602081101561081057600080fd5b503560020b612b5a565b604080516001600160801b039099168952600f9790970b602089015287870195909552606087019390935260069190910b60808601526001600160a01b031660a085015263ffffffff1660c0840152151560e083015251908190036101000190f35b6102fd6004803603602081101561089257600080fd5b50356001600160a01b0316612bc6565b7f000000000000000000000000000000000000000000000000000000000000000081565b60008085610900576040805162461bcd60e51b8152602060048201526002602482015261415360f01b604482015290519081900360640190fd5b6040805160e0810182526000546001600160a01b0381168252600160a01b8104600290810b810b900b602083015261ffff600160b81b8204811693830193909352600160c81b810483166060830152600160d81b9004909116608082015260015463ffffffff811660a083015260ff600160201b90910416151560c082018190526109b8576040805162461bcd60e51b81526020600482015260036024820152624c4f4b60e81b604482015290519081900360640190fd5b87610a035780600001516001600160a01b0316866001600160a01b03161180156109fe575073fffd8963efd1fc6a506488495d951d5263988d266001600160a01b038716105b610a35565b80600001516001600160a01b0316866001600160a01b0316108015610a3557506401000276a36001600160a01b038716115b610a6c576040805162461bcd60e51b815260206004820152600360248201526214d41360ea1b604482015290519081900360640190fd5b6001805460ff60201b191690556040805160c08101909152600090808a610aa15760108460a0015163ffffffff16901c610ab8565b61ffff8460a0015163ffffffff1681610ab657fe5b065b63ffffffff1681526005546001600160801b03166020820152604001610adc612ecb565b63ffffffff1681526000602082018190526040820181905260609091015262010008549091506001600160a01b031615610b8257620100085460408083015181516310a537f160e11b815263ffffffff909116600482015290516001600160a01b039092169163214a6fe29160248082019260009290919082900301818387803b158015610b6957600080fd5b505af1158015610b7d573d6000803e3d6000fd5b505050505b6000808913905060006040518060e001604052808b81526020016000815260200185600001516001600160a01b03168152602001856020015160020b81526020018c610bd057600354610bd4565b6002545b815260200160006001600160801b0316815260200184602001516001600160801b031681525090505b805115801590610c235750886001600160a01b031681604001516001600160a01b031614155b1561109257610c306157bf565b60408201516001600160a01b031681526060820151610c73906007907f00000000000000000000000000000000000000000000000000000000000000008f612ecf565b15156040830152600290810b810b60208301819052620d89e719910b1215610ca457620d89e7196020820152610cc3565b6020810151620d89e860029190910b1315610cc357620d89e860208201525b610cd08160200151613011565b6001600160a01b031660608201526040820151610d61908d610d0a578b6001600160a01b031683606001516001600160a01b031611610d24565b8b6001600160a01b031683606001516001600160a01b0316105b610d32578260600151610d34565b8b5b60c085015185517f0000000000000000000000000000000000000000000000000000000000000000613338565b60c085015260a084015260808301526001600160a01b031660408301528215610dc357610d978160c0015182608001510161352a565b825103825260a0810151610db990610dae9061352a565b602084015190613540565b6020830152610dfe565b610dd08160a0015161352a565b825101825260c08101516080820151610df891610ded910161352a565b60208401519061355c565b60208301525b835163ffffffff1615610e5e576000612710610e31866000015163ffffffff168460c0015161357290919063ffffffff16565b81610e3857fe5b60c0840180519290910491829003905260a0840180519091016001600160801b03169052505b60c08201516001600160801b031615610e9d57610e918160c00151600160801b8460c001516001600160801b0316613596565b60808301805190910190525b80606001516001600160a01b031682604001516001600160a01b0316141561105157806040015115611028578360a00151610f2757610f05846040015160008760200151886040015188602001518a606001516009613646909695949392919063ffffffff16565b6001600160a01b03166080860152600690810b900b6060850152600160a08501525b62010008546001600160a01b031615610fb257620100085460208201516040805163a498463360e01b815260029290920b60048301528e15156024830152516001600160a01b039092169163a49846339160448082019260009290919082900301818387803b158015610f9957600080fd5b505af1158015610fad573d6000803e3d6000fd5b505050505b6000610ffe82602001518e610fc957600254610fcf565b84608001515b8f610fde578560800151610fe2565b6003545b608089015160608a015160408b015160069594939291906137d8565b90508c1561100a576000035b6110188360c0015182613892565b6001600160801b031660c0840152505b8b611037578060200151611040565b60018160200151035b600290810b900b606083015261108c565b80600001516001600160a01b031682604001516001600160a01b03161461108c5761107f8260400151613948565b600290810b900b60608301525b50610bfd565b836020015160020b816060015160020b14611160576000806110e086604001518660400151886020015188602001518a606001518b608001516009613c33909695949392919063ffffffff16565b604085015160608601516000805461ffff60c81b1916600160c81b61ffff958616021761ffff60b81b1916600160b81b95909416949094029290921762ffffff60a01b1916600160a01b62ffffff60029490940b9390931692909202919091176001600160a01b0319166001600160a01b03909116179055506111859050565b6040810151600080546001600160a01b0319166001600160a01b039092169190911790555b8060c001516001600160801b031683602001516001600160801b0316146111cb5760c0810151600580546001600160801b0319166001600160801b039092169190911790555b6002546003548c15611227576080830151600281905560a0840151929003916001600160801b0316156112225760a0830151600480546001600160801b031981166001600160801b03918216909301169190911790555b611273565b6080830151600381905560a0840151919003906001600160801b0316156112735760a0830151600480546001600160801b03808216600160801b92839004821690940116029190911790555b8315158d15151461128c57602083015183518d03611299565b82600001518c0383602001515b90985096508c156113d25760008712156112db576112db7f00000000000000000000000000000000000000000000000000000000000000008f89600003613db8565b60006112e5613f06565b9050336001600160a01b03166323a69e758a8a8e8e6040518563ffffffff1660e01b815260040180858152602001848152602001806020018281038252848482818152602001925080828437600081840152601f19601f82011690508083019250505095505050505050600060405180830381600087803b15801561136957600080fd5b505af115801561137d573d6000803e3d6000fd5b50505050611389613f06565b611393828b61403f565b11156113cc576040805162461bcd60e51b815260206004820152600360248201526249494160e81b604482015290519081900360640190fd5b506114fc565b6000881215611409576114097f00000000000000000000000000000000000000000000000000000000000000008f8a600003613db8565b600061141361404f565b9050336001600160a01b03166323a69e758a8a8e8e6040518563ffffffff1660e01b815260040180858152602001848152602001806020018281038252848482818152602001925080828437600081840152601f19601f82011690508083019250505095505050505050600060405180830381600087803b15801561149757600080fd5b505af11580156114ab573d6000803e3d6000fd5b505050506114b761404f565b6114c1828a61403f565b11156114fa576040805162461bcd60e51b815260206004820152600360248201526249494160e81b604482015290519081900360640190fd5b505b8d6001600160a01b0316336001600160a01b03167f4ab3d0f7979b158b4dfed3725358d0bb4eef28c3f53aa4b5c833b3c6e630123b8a8a87604001518860c001518960600151898960405180888152602001878152602001866001600160a01b03168152602001856001600160801b031681526020018460020b815260200183815260200182815260200197505050505050505060405180910390a350506001805460ff60201b1916600160201b17905550939a92995091975050505050505050565b6005546001600160801b031681565b6004546001600160801b0380821691600160801b90041682565b60098161ffff81106115f957600080fd5b015463ffffffff81169150600160201b810460060b90600160581b81046001600160a01b031690600160f81b900460ff1684565b600154600160201b900460ff16611671576040805162461bcd60e51b81526020600482015260036024820152624c4f4b60e81b604482015290519081900360640190fd5b6001805460ff60201b1916905560008054600160d81b900461ffff169061169a600983856140e7565b6000805461ffff808416600160d81b810261ffff60d81b1990931692909217909255919250831614611707576040805161ffff80851682528316602082015281517fac49e518f90a358f652e4400164f05a5d8f7e35e7747279bc3a93dbf584e125a929181900390910190a15b50506001805460ff60201b1916600160201b17905550565b6000546001546001600160a01b03821691600160a01b810460020b9161ffff600160b81b8304811692600160c81b8104821692600160d81b9091049091169063ffffffff81169060ff600160201b9091041687565b6001546000908190600160201b900460ff166117bd576040805162461bcd60e51b81526020600482015260036024820152624c4f4b60e81b604482015290519081900360640190fd5b6001805460ff60201b191690556001600160801b0385166117dd57600080fd5b60008061182b60405180608001604052808c6001600160a01b031681526020018b60020b81526020018a60020b81526020016118218a6001600160801b031661418a565b600f0b905261419b565b9250925050819350809250600080600086111561184d5761184a613f06565b91505b841561185e5761185b61404f565b90505b336001600160a01b03166399eee9d087878b8b6040518563ffffffff1660e01b815260040180858152602001848152602001806020018281038252848482818152602001925080828437600081840152601f19601f82011690508083019250505095505050505050600060405180830381600087803b1580156118e057600080fd5b505af11580156118f4573d6000803e3d6000fd5b50505050600086111561194b57611909613f06565b611913838861403f565b111561194b576040805162461bcd60e51b815260206004820152600260248201526104d360f41b604482015290519081900360640190fd5b841561199b5761195961404f565b611963828761403f565b111561199b576040805162461bcd60e51b81526020600482015260026024820152614d3160f01b604482015290519081900360640190fd5b8960020b8b60020b8d6001600160a01b03167f7a53080ba414158be7ec69b987b5fb7d07dee101fe85488f0853ae16239d0bde338d8b8b60405180856001600160a01b03168152602001846001600160801b0316815260200183815260200182815260200194505050505060405180910390a450506001805460ff60201b1916600160201b17905550919890975095505050505050565b60035481565b600154600160201b900460ff16611a7c576040805162461bcd60e51b81526020600482015260036024820152624c4f4b60e81b604482015290519081900360640190fd5b6001805460ff60201b191690556005546001600160801b031680611acb576040805162461bcd60e51b81526020600482015260016024820152601360fa1b604482015290519081900360640190fd5b6000611b00867f000000000000000000000000000000000000000000000000000000000000000062ffffff16620f42406143d1565b90506000611b37867f000000000000000000000000000000000000000000000000000000000000000062ffffff16620f42406143d1565b90506000611b43613f06565b90506000611b4f61404f565b90508815611b8257611b827f00000000000000000000000000000000000000000000000000000000000000008b8b613db8565b8715611bb357611bb37f00000000000000000000000000000000000000000000000000000000000000008b8a613db8565b336001600160a01b031663a1d4833685858a8a6040518563ffffffff1660e01b815260040180858152602001848152602001806020018281038252848482818152602001925080828437600081840152601f19601f82011690508083019250505095505050505050600060405180830381600087803b158015611c3557600080fd5b505af1158015611c49573d6000803e3d6000fd5b505050506000611c57613f06565b90506000611c6361404f565b905081611c70858861403f565b1115611ca8576040805162461bcd60e51b8152602060048201526002602482015261046360f41b604482015290519081900360640190fd5b80611cb3848761403f565b1115611ceb576040805162461bcd60e51b8152602060048201526002602482015261463160f01b604482015290519081900360640190fd5b8382038382038115611d745760015461ffff1660008115611d185761271063ffffffff8316850204611d1b565b60005b90506001600160801b03811615611d4e57600480546001600160801b038082168401166001600160801b03199091161790555b611d68818503600160801b8d6001600160801b0316613596565b60028054909101905550505b8015611df95760015460101c61ffff1660008115611d9e5761271063ffffffff8316840204611da1565b60005b90506001600160801b03811615611dd357600480546001600160801b03600160801b8083048216850182160291161790555b611ded818403600160801b8d6001600160801b0316613596565b60038054909101905550505b8d6001600160a01b0316336001600160a01b03167fbdbdb71d7860376ba52b25a5028beea23581364a40522f6bcfb86bb1f2dca6338f8f86866040518085815260200184815260200183815260200182815260200194505050505060405180910390a350506001805460ff60201b1916600160201b179055505050505050505050505050565b6001546000908190600160201b900460ff16611ec8576040805162461bcd60e51b81526020600482015260036024820152624c4f4b60e81b604482015290519081900360640190fd5b6001805460ff60201b191690556000611ee4600833898961440b565b60038101549091506001600160801b0390811690861611611f055784611f14565b60038101546001600160801b03165b60038201549093506001600160801b03600160801b909104811690851611611f3c5783611f52565b6003810154600160801b90046001600160801b03165b91506001600160801b03831615611fb7576003810180546001600160801b031981166001600160801b03918216869003821617909155611fb7907f0000000000000000000000000000000000000000000000000000000000000000908a908616613db8565b6001600160801b0382161561201d576003810180546001600160801b03600160801b80830482168690038216029181169190911790915561201d907f0000000000000000000000000000000000000000000000000000000000000000908a908516613db8565b604080516001600160a01b038a1681526001600160801b0380861660208301528416818301529051600288810b92908a900b9133917f70935338e69775456a85ddef226c395fb668b63fa0115f5f20610b388e6ca9c0919081900360600190a4506001805460ff60201b1916600160201b17905590969095509350505050565b60086020526000908152604090208054600182015460028301546003909301546001600160801b0392831693919281811691600160801b90041685565b60076020526000908152604090205481565b62010008546001600160a01b031681565b7f000000000000000000000000000000000000000000000000000000000000000081565b6001546000908190600160201b900460ff1661216a576040805162461bcd60e51b81526020600482015260036024820152624c4f4b60e81b604482015290519081900360640190fd5b6001805460ff60201b1916905560408051638da5cb5b60e01b815290516001600160a01b037f00000000000000000000000000000000000000000000000000000000000000001691638da5cb5b916004828101926020929190829003018186803b1580156121d757600080fd5b505afa1580156121eb573d6000803e3d6000fd5b505050506040513d602081101561220157600080fd5b50516001600160a01b0316331461221757600080fd5b6004546001600160801b03908116908516116122335783612240565b6004546001600160801b03165b6004549092506001600160801b03600160801b909104811690841611612266578261227a565b600454600160801b90046001600160801b03165b90506001600160801b038216156122fb576004546001600160801b03838116911614156122a957600019909101905b600480546001600160801b031981166001600160801b039182168590038216179091556122fb907f00000000000000000000000000000000000000000000000000000000000000009087908516613db8565b6001600160801b03811615612381576004546001600160801b03828116600160801b90920416141561232c57600019015b600480546001600160801b03600160801b808304821685900382160291811691909117909155612381907f00000000000000000000000000000000000000000000000000000000000000009087908416613db8565b604080516001600160801b0380851682528316602082015281516001600160a01b0388169233927f596b573906218d3411850b26a6b437d6c4522fdb43d2d2386263f86d50b8b151929081900390910190a36001805460ff60201b1916600160201b1790559094909350915050565b60608061246a6123fe612ecb565b858580806020026020016040519081016040528093929190818152602001838360200280828437600092018290525054600554600996959450600160a01b820460020b935061ffff600160b81b8304811693506001600160801b0390911691600160c81b90041661446a565b915091509250929050565b6001546000908190600160201b900460ff166124be576040805162461bcd60e51b81526020600482015260036024820152624c4f4b60e81b604482015290519081900360640190fd5b6001805460ff60201b1916905560408051608081018252338152600287810b602083015286900b918101919091526000908190819061251a906060810161250d6001600160801b038a1661418a565b600003600f0b905261419b565b925092509250816000039450806000039350600085118061253b5750600084115b1561257a576003830180546001600160801b038082168089018216600160801b93849004831689019092169092029091176001600160801b0319161790555b604080516001600160801b0388168152602081018790528082018690529051600289810b92908b900b9133917f0c396cd989a39f4459b5fa1aed6a9a8dcdbc45908acfd67e028cd568da98982c919081900360600190a450506001805460ff60201b1916600160201b179055509094909350915050565b600080600061260085856145c2565b600285810b810b600090815260066020819052604080832088850b90940b8352822060038401549182900b93600160381b83046001600160a01b0316928492600160d81b820463ffffffff16928492909190600160f81b900460ff168061266657600080fd5b6003820154600681900b9850600160381b81046001600160a01b03169650600160d81b810463ffffffff169450600160f81b900460ff16806126a757600080fd5b50506040805160e0810182526000546001600160a01b0381168252600160a01b8104600290810b810b810b6020840181905261ffff600160b81b8404811695850195909552600160c81b830485166060850152600160d81b909204909316608083015260015463ffffffff811660a084015260ff600160201b90910416151560c08301529093508e820b910b1215905061274f575093909403965090039350900390506127d2565b8a60020b816020015160020b12156127c357600061276b612ecb565b60208301516040840151600554606086015193945060009384936127a1936009938893879392916001600160801b031690613646565b9a9003989098039b5050949096039290920396509091030392506127d2915050565b50949093039650039350900390505b9250925092565b600154600160201b900460ff1661281d576040805162461bcd60e51b81526020600482015260036024820152624c4f4b60e81b604482015290519081900360640190fd5b6001805460ff60201b1916905560408051638da5cb5b60e01b815290516001600160a01b037f00000000000000000000000000000000000000000000000000000000000000001691638da5cb5b916004828101926020929190829003018186803b15801561288a57600080fd5b505afa15801561289e573d6000803e3d6000fd5b505050506040513d60208110156128b457600080fd5b50516001600160a01b031633146128ca57600080fd5b63ffffffff821615806128f857506103e88263ffffffff16101580156128f85750610fa08263ffffffff1611155b801561292d575063ffffffff8116158061292d57506103e88163ffffffff161015801561292d5750610fa08163ffffffff1611155b61293657600080fd5b6001805465ffffffff0000601084901b16840163ffffffff90811663ffffffff19831617909255167fb3159fed3ddfba67bae294599eafe2d0ec98c08bb38e0e5fb87d33154b6e05aa62010000826040805163ffffffff939092068316825261ffff601086901c16602083015286831682820152918516606082015290519081900360800190a150506001805460ff60201b1916600160201b17905550565b7f000000000000000000000000000000000000000000000000000000000000000081565b7f00000000000000000000000000000000000000000000000000000000000000006001600160a01b0316638da5cb5b6040518163ffffffff1660e01b815260040160206040518083038186803b158015612a5257600080fd5b505afa158015612a66573d6000803e3d6000fd5b505050506040513d6020811015612a7c57600080fd5b50516001600160a01b03163314612a9257600080fd5b6201000880546001600160a01b0383166001600160a01b0319909116811790915560408051918252517f29983690a85a11696ce8a357993744f8d5a74fde14653e517cc2f8608a7235e99181900360200190a150565b7f000000000000000000000000000000000000000000000000000000000000000081565b7f000000000000000000000000000000000000000000000000000000000000000081565b7f000000000000000000000000000000000000000000000000000000000000000081565b60025481565b60066020819052600091825260409091208054600182015460028301546003909301546001600160801b03831694600160801b909304600f0b93919281900b90600160381b81046001600160a01b031690600160d81b810463ffffffff1690600160f81b900460ff1688565b6000546001600160a01b031615612c09576040805162461bcd60e51b8152602060048201526002602482015261414960f01b604482015290519081900360640190fd5b6000612c1482613948565b9050600080612c2c612c24612ecb565b60099061468b565b6040805160e0810182526001600160a01b038816808252600288810b60208401819052600094840185905261ffff8781166060860181905290871660808601819052630c800c8060a08701819052600160c090970187905287546001600160a01b03191690951762ffffff60a01b1916600160a01b62ffffff9490950b8416949094029390931763ffffffff60b81b1916600160c81b9091021761ffff60d81b1916600160d81b909202919091179093558154600160201b63ffffffff1990911690911760ff60201b191617905591935091507f00000000000000000000000000000000000000000000000000000000000000001660641415612d41576001805463ffffffff1916630ce40ce4179055612e12565b7f000000000000000000000000000000000000000000000000000000000000000062ffffff166101f41415612d88576001805463ffffffff1916630d480d48179055612e12565b7f000000000000000000000000000000000000000000000000000000000000000062ffffff166109c41415612dcf576001805463ffffffff1916630c800c80179055612e12565b7f000000000000000000000000000000000000000000000000000000000000000062ffffff166127101415612e12576001805463ffffffff1916630c800c801790555b604080516001600160a01b0386168152600285900b602082015281517f98636036cb66a9c19a37435efc1e90142190214e8abeb821bdba3f2990dd4c95929181900390910190a150505050565b60008082600281900b620d89e71981612e7457fe5b05029050600083600281900b620d89e881612e8b57fe5b0502905060008460020b83830360020b81612ea257fe5b0560010190508062ffffff166001600160801b03801681612ebf57fe5b0493505050505b919050565b4290565b60008060008460020b8660020b81612ee357fe5b05905060008660020b128015612f0a57508460020b8660020b81612f0357fe5b0760020b15155b15612f1457600019015b8315612f8957600080612f26836146d7565b600182810b810b600090815260208d9052604090205460ff83169190911b80016000190190811680151597509294509092509085612f6b57888360ff16860302612f7e565b88612f75826146e9565b840360ff168603025b965050505050613007565b600080612f98836001016146d7565b91509150600060018260ff166001901b031990506000818b60008660010b60010b8152602001908152602001600020541690508060001415955085612fea57888360ff0360ff16866001010102613000565b8883612ff583614783565b0360ff168660010101025b9650505050505b5094509492505050565b60008060008360020b12613028578260020b613030565b8260020b6000035b9050620d89e881111561306e576040805162461bcd60e51b81526020600482015260016024820152601560fa1b604482015290519081900360640190fd5b60006001821661308257600160801b613094565b6ffffcb933bd6fad37aa2d162d1a5940015b6001600160881b0316905060028216156130be576ffff97272373d413259a46990580e213a0260801c5b60048216156130dd576ffff2e50f5f656932ef12357cf3c7fdcc0260801c5b60088216156130fc576fffe5caca7e10e4e61c3624eaa0941cd00260801c5b601082161561311b576fffcb9843d60f6159c9db58835c9266440260801c5b602082161561313a576fff973b41fa98c081472e6896dfb254c00260801c5b6040821615613159576fff2ea16466c96a3843ec78b326b528610260801c5b6080821615613178576ffe5dee046a99a2a811c461f1969c30530260801c5b610100821615613198576ffcbe86c7900a88aedcffc83b479aa3a40260801c5b6102008216156131b8576ff987a7253ac413176f2b074cf7815e540260801c5b6104008216156131d8576ff3392b0822b70005940c7a398e4b70f30260801c5b6108008216156131f8576fe7159475a2c29b7443b29c7fa6e889d90260801c5b611000821615613218576fd097f3bdfd2022b8845ad8f792aa58250260801c5b612000821615613238576fa9f746462d870fdf8a65dc1f90e061e50260801c5b614000821615613258576f70d869a156d2a1b890bb3df62baf32f70260801c5b618000821615613278576f31be135f97d08fd981231505542fcfa60260801c5b62010000821615613299576f09aa508b5b7a84e1c677de54f3e99bc90260801c5b620200008216156132b9576e5d6af8dedb81196699c329225ee6040260801c5b620400008216156132d8576d2216e584f5fa1ea926041bedfe980260801c5b620800008216156132f5576b048a170391f7dc42444e8fa20260801c5b60008460020b131561331057806000198161330c57fe5b0490505b600160201b810615613323576001613326565b60005b60ff16602082901c0192505050919050565b60008080806001600160a01b03808916908a1610158187128015906133bd5760006133718989620f42400362ffffff16620f4240613596565b90508261338a576133858c8c8c600161486c565b613397565b6133978b8d8c60016148e7565b95508581106133a8578a96506133b7565b6133b48c8b8386614992565b96505b50613407565b816133d4576133cf8b8b8b60006148e7565b6133e1565b6133e18a8c8b600061486c565b93508388600003106133f557899550613407565b6134048b8a8a600003856149de565b95505b6001600160a01b038a811690871614821561346a578080156134265750815b61343c57613437878d8c60016148e7565b61343e565b855b955080801561344b575081155b6134615761345c878d8c600061486c565b613463565b845b94506134b4565b8080156134745750815b61348a576134858c888c600161486c565b61348c565b855b9550808015613499575081155b6134af576134aa8c888c60006148e7565b6134b1565b845b94505b811580156134c457508860000385115b156134d0578860000394505b8180156134ef57508a6001600160a01b0316876001600160a01b031614155b156134fe57858903935061351b565b613518868962ffffff168a620f42400362ffffff166143d1565b93505b50505095509550955095915050565b6000600160ff1b821061353c57600080fd5b5090565b8082038281131560008312151461355657600080fd5b92915050565b8181018281121560008312151461355657600080fd5b600082158061358d5750508181028183828161358a57fe5b04145b61355657600080fd5b60008080600019858709868602925082811090839003039050806135cc57600084116135c157600080fd5b50829004905061363f565b8084116135d857600080fd5b6000848688096000868103871696879004966002600389028118808a02820302808a02820302808a02820302808a02820302808a02820302808a02909103029181900381900460010186841190950394909402919094039290920491909117919091029150505b9392505050565b60008063ffffffff87166136ec576000898661ffff1661ffff811061366757fe5b60408051608081018252919092015463ffffffff808216808452600160201b8304600690810b810b900b6020850152600160581b83046001600160a01b031694840194909452600160f81b90910460ff16151560608301529092508a16146136d8576136d5818a8988614a2a565b90505b8060200151816040015192509250506137cc565b8688036000806137018c8c858c8c8c8c614acd565b91509150816000015163ffffffff168363ffffffff1614156137335781602001518260400151945094505050506137cc565b805163ffffffff8481169116141561375b5780602001518160400151945094505050506137cc565b8151815160208085015190840151918390039286039163ffffffff80841692908516910360060b8161378957fe5b05028460200151018263ffffffff168263ffffffff1686604001518660400151036001600160a01b031602816137bb57fe5b048560400151019650965050505050505b97509795505050505050565b600295860b860b60009081526020979097526040909620600181018054909503909455938301805490920390915560038201805463ffffffff600160d81b6001600160a01b03600160381b808504821690960316909402600160381b600160d81b031990921691909117600681810b90960390950b66ffffffffffffff1666ffffffffffffff199095169490941782810485169095039093160263ffffffff60d81b1990931692909217905554600160801b9004600f0b90565b60008082600f0b12156138f757826001600160801b03168260000384039150816001600160801b0316106138f2576040805162461bcd60e51b81526020600482015260026024820152614c5360f01b604482015290519081900360640190fd5b613556565b826001600160801b03168284019150816001600160801b03161015613556576040805162461bcd60e51b81526020600482015260026024820152614c4160f01b604482015290519081900360640190fd5b60006401000276a36001600160a01b03831610801590613984575073fffd8963efd1fc6a506488495d951d5263988d266001600160a01b038316105b6139b9576040805162461bcd60e51b81526020600482015260016024820152602960f91b604482015290519081900360640190fd5b600160201b600160c01b03602083901b166001600160801b03811160071b81811c6001600160401b03811160061b90811c63ffffffff811160051b90811c61ffff811160041b90811c60ff8111600390811b91821c600f811160021b90811c918211600190811b92831c97908811961790941790921717909117171760808110613a4b57607f810383901c9150613a55565b80607f0383901b91505b908002607f81811c60ff83811c9190911c800280831c81831c1c800280841c81841c1c800280851c81851c1c800280861c81861c1c800280871c81871c1c800280881c81881c1c800280891c81891c1c8002808a1c818a1c1c8002808b1c818b1c1c8002808c1c818c1c1c8002808d1c818d1c1c8002808e1c9c81901c9c909c1c80029c8d901c9e9d607f198f0160401b60c09190911c6001603f1b161760c19b909b1c6001603e1b169a909a1760c29990991c6001603d1b169890981760c39790971c6001603c1b169690961760c49590951c6001603b1b169490941760c59390931c6001603a1b169290921760c69190911c600160391b161760c79190911c600160381b161760c89190911c600160371b161760c99190911c600160361b161760ca9190911c600160351b161760cb9190911c600160341b161760cc9190911c600160331b161760cd9190911c600160321b1617693627a301d71055774c8581026f028f6481ab7f045a5af012a19d003aa9198101608090811d906fdb2df09e81959a81455e260799a0632f8301901d600281810b9083900b14613c2457886001600160a01b0316613c0882613011565b6001600160a01b03161115613c1d5781613c1f565b805b613c26565b815b9998505050505050505050565b6000806000898961ffff1661ffff8110613c4957fe5b60408051608081018252919092015463ffffffff808216808452600160201b8304600690810b810b900b6020850152600160581b83046001600160a01b031694840194909452600160f81b90910460ff161515606083015290925089161415613cb857888592509250506137cc565b8461ffff168461ffff16118015613cd957506001850361ffff168961ffff16145b15613ce657839150613cea565b8491505b8161ffff168960010161ffff1681613cfe57fe5b069250613d0d81898989614a2a565b8a8461ffff1661ffff8110613d1e57fe5b825191018054602084015160408501516060909501511515600160f81b026001600160f81b036001600160a01b03909616600160581b02600160581b600160f81b031960069390930b66ffffffffffffff16600160201b0266ffffffffffffff60201b1963ffffffff90971663ffffffff199095169490941795909516929092171692909217929092161790555097509795505050505050565b604080516001600160a01b038481166024830152604480830185905283518084039091018152606490920183526020820180516001600160e01b031663a9059cbb60e01b1781529251825160009485949389169392918291908083835b60208310613e345780518252601f199092019160209182019101613e15565b6001836020036101000a0380198251168184511680821785525050505050509050019150506000604051808303816000865af19150503d8060008114613e96576040519150601f19603f3d011682016040523d82523d6000602084013e613e9b565b606091505b5091509150818015613ec9575080511580613ec95750808060200190516020811015613ec657600080fd5b50515b613eff576040805162461bcd60e51b81526020600482015260026024820152612a2360f11b604482015290519081900360640190fd5b5050505050565b604080513060248083019190915282518083039091018152604490910182526020810180516001600160e01b03166370a0823160e01b17815291518151600093849384936001600160a01b037f00000000000000000000000000000000000000000000000000000000000000001693919290918291908083835b60208310613f9f5780518252601f199092019160209182019101613f80565b6001836020036101000a038019825116818451168082178552505050505050905001915050600060405180830381855afa9150503d8060008114613fff576040519150601f19603f3d011682016040523d82523d6000602084013e614004565b606091505b509150915081801561401857506020815110155b61402157600080fd5b80806020019051602081101561403657600080fd5b50519250505090565b8082018281101561355657600080fd5b604080513060248083019190915282518083039091018152604490910182526020810180516001600160e01b03166370a0823160e01b17815291518151600093849384936001600160a01b037f000000000000000000000000000000000000000000000000000000000000000016939192909182919080838360208310613f9f5780518252601f199092019160209182019101613f80565b6000808361ffff1611614125576040805162461bcd60e51b81526020600482015260016024820152604960f81b604482015290519081900360640190fd5b8261ffff168261ffff161161413b57508161363f565b825b8261ffff168161ffff161015614181576001858261ffff1661ffff811061416057fe5b01805463ffffffff191663ffffffff9290921691909117905560010161413d565b50909392505050565b80600f81900b8114612ec657600080fd5b60008060006141b2846020015185604001516145c2565b6040805160e0810182526000546001600160a01b0381168252600160a01b8104600290810b810b900b602080840182905261ffff600160b81b8404811685870152600160c81b84048116606080870191909152600160d81b90940416608085015260015463ffffffff811660a086015260ff600160201b90910416151560c0850152885190890151948901519289015193946142549491939092909190614cc7565b93508460600151600f0b6000146143c957846020015160020b816020015160020b12156142a9576142a261428b8660200151613011565b6142988760400151613011565b8760600151614e7c565b92506143c9565b846040015160020b816020015160020b121561439f5760055460408201516001600160801b03909116906142fb906142df612ecb565b6020850151606086015160808701516009949392918791613c33565b6000805461ffff60c81b1916600160c81b61ffff938416021761ffff60b81b1916600160b81b93909216929092021790558151604087015161434b919061434190613011565b8860600151614e7c565b935061436961435d8760200151613011565b83516060890151614ec0565b9250614379818760600151613892565b600580546001600160801b0319166001600160801b0392909216919091179055506143c9565b6143c66143af8660200151613011565b6143bc8760400151613011565b8760600151614ec0565b91505b509193909250565b60006143de848484613596565b9050600082806143ea57fe5b848609111561363f57600019811061440157600080fd5b6001019392505050565b6040805160609490941b6001600160601b031916602080860191909152600293840b60e890811b60348701529290930b90911b60378401528051808403601a018152603a90930181528251928201929092206000908152929052902090565b60608060008361ffff16116144aa576040805162461bcd60e51b81526020600482015260016024820152604960f81b604482015290519081900360640190fd5b86516001600160401b03811180156144c157600080fd5b506040519080825280602002602001820160405280156144eb578160200160208202803683370190505b50915086516001600160401b038111801561450557600080fd5b5060405190808252806020026020018201604052801561452f578160200160208202803683370190505b50905060005b87518110156145b5576145608a8a8a848151811061454f57fe5b60200260200101518a8a8a8a613646565b84838151811061456c57fe5b6020026020010184848151811061457f57fe5b60200260200101826001600160a01b03166001600160a01b03168152508260060b60060b81525050508080600101915050614535565b5097509795505050505050565b8060020b8260020b12614602576040805162461bcd60e51b8152602060048201526003602482015262544c5560e81b604482015290519081900360640190fd5b620d89e719600283900b1215614645576040805162461bcd60e51b8152602060048201526003602482015262544c4d60e81b604482015290519081900360640190fd5b620d89e8600282900b1315614687576040805162461bcd60e51b815260206004820152600360248201526254554d60e81b604482015290519081900360640190fd5b5050565b6040805160808101825263ffffffff9283168082526000602083018190529282019290925260016060909101819052835463ffffffff1916909117909116600160f81b17909155908190565b60020b600881901d9161010090910790565b60008082116146f757600080fd5b600160801b821061470a57608091821c91015b600160401b821061471d57604091821c91015b600160201b821061473057602091821c91015b62010000821061474257601091821c91015b610100821061475357600891821c91015b6010821061476357600491821c91015b6004821061477357600291821c91015b60028210612ec657600101919050565b600080821161479157600080fd5b5060ff6001600160801b038216156147ac57607f19016147b4565b608082901c91505b6001600160401b038216156147cc57603f19016147d4565b604082901c91505b63ffffffff8216156147e957601f19016147f1565b602082901c91505b61ffff82161561480457600f190161480c565b601082901c91505b60ff82161561481e5760071901614826565b600882901c91505b600f8216156148385760031901614840565b600482901c91505b6003821615614852576001190161485a565b600282901c91505b6001821615612ec65760001901919050565b6000836001600160a01b0316856001600160a01b0316111561488c579293925b816148b9576148b4836001600160801b03168686036001600160a01b0316600160601b613596565b6148dc565b6148dc836001600160801b03168686036001600160a01b0316600160601b6143d1565b90505b949350505050565b6000836001600160a01b0316856001600160a01b03161115614907579293925b600160601b600160e01b03606084901b166001600160a01b03868603811690871661493157600080fd5b8361496157866001600160a01b03166149548383896001600160a01b0316613596565b8161495b57fe5b04614987565b6149876149788383896001600160a01b03166143d1565b886001600160a01b0316614eef565b979650505050505050565b600080856001600160a01b0316116149a957600080fd5b6000846001600160801b0316116149bf57600080fd5b816149d1576148b48585856001614efa565b6148dc8585856001614fdb565b600080856001600160a01b0316116149f557600080fd5b6000846001600160801b031611614a0b57600080fd5b81614a1d576148b48585856000614fdb565b6148dc8585856000614efa565b614a326157fb565b600085600001518503905060405180608001604052808663ffffffff1681526020018263ffffffff168660020b0288602001510160060b81526020016000856001600160801b031611614a86576001614a88565b845b6001600160801b031663ffffffff60801b608085901b1681614aa657fe5b048860400151016001600160a01b0316815260200160011515815250915050949350505050565b614ad56157fb565b614add6157fb565b888561ffff1661ffff8110614aee57fe5b60408051608081018252919092015463ffffffff8116808352600160201b8204600690810b810b900b6020840152600160581b82046001600160a01b031693830193909352600160f81b900460ff16151560608201529250614b52908990896150be565b15614b8a578663ffffffff16826000015163ffffffff161415614b74576137cc565b81614b8183898988614a2a565b915091506137cc565b888361ffff168660010161ffff1681614b9f57fe5b0661ffff1661ffff8110614baf57fe5b60408051608081018252929091015463ffffffff81168352600160201b8104600690810b810b900b60208401526001600160a01b03600160581b8204169183019190915260ff600160f81b90910416151560608201819052909250614c6457604080516080810182528a5463ffffffff81168252600160201b8104600690810b810b900b6020830152600160581b81046001600160a01b031692820192909252600160f81b90910460ff161515606082015291505b614c73888360000151896150be565b614caa576040805162461bcd60e51b815260206004820152600360248201526213d31160ea1b604482015290519081900360640190fd5b614cb7898989888761517f565b9150915097509795505050505050565b6000614cd6600887878761440b565b60025460035491925090600080600f87900b15614e1c576000614cf7612ecb565b6000805460055492935090918291614d419160099186918591600160a01b810460020b9161ffff600160b81b83048116926001600160801b0390921691600160c81b900416613646565b9092509050614d7b60068d8b8d8b8b87898b60007f000000000000000000000000000000000000000000000000000000000000000061531d565b9450614db260068c8b8d8b8b87898b60017f000000000000000000000000000000000000000000000000000000000000000061531d565b93508415614de657614de660078d7f00000000000000000000000000000000000000000000000000000000000000006154d6565b8315614e1857614e1860078c7f00000000000000000000000000000000000000000000000000000000000000006154d6565b5050505b600080614e2e60068c8c8b8a8a61553c565b9092509050614e3f878a84846155e8565b600089600f0b1215614e6d578315614e5c57614e5c60068c61577d565b8215614e6d57614e6d60068b61577d565b50505050505095945050505050565b60008082600f0b12614ea257614e9d614e9885858560016148e7565b61352a565b6148df565b614eb5614e9885858560000360006148e7565b600003949350505050565b60008082600f0b12614edc57614e9d614e98858585600161486c565b614eb5614e98858585600003600061486c565b808204910615150190565b60008115614f6d5760006001600160a01b03841115614f3057614f2b84600160601b876001600160801b0316613596565b614f48565b6001600160801b038516606085901b81614f4657fe5b045b9050614f65614f606001600160a01b0388168361403f565b6157a9565b9150506148df565b60006001600160a01b03841115614f9b57614f9684600160601b876001600160801b03166143d1565b614fb2565b614fb2606085901b6001600160801b038716614eef565b905080866001600160a01b031611614fc957600080fd5b6001600160a01b0386160390506148df565b600082614fe95750836148df565b600160601b600160e01b03606085901b168215615077576001600160a01b0386168481029085828161501757fe5b041415615048578181018281106150465761503c83896001600160a01b0316836143d1565b93505050506148df565b505b61506e82615069878a6001600160a01b0316868161506257fe5b049061403f565b614eef565b925050506148df565b6001600160a01b0386168481029085828161508e57fe5b0414801561509b57508082115b6150a457600080fd5b80820361503c614f60846001600160a01b038b16846143d1565b60008363ffffffff168363ffffffff16111580156150e857508363ffffffff168263ffffffff1611155b15615104578163ffffffff168363ffffffff161115905061363f565b60008463ffffffff168463ffffffff161161512b578363ffffffff16600160201b01615133565b8363ffffffff165b64ffffffffff16905060008563ffffffff168463ffffffff1611615163578363ffffffff16600160201b0161516b565b8363ffffffff165b64ffffffffff169091111595945050505050565b6151876157fb565b61518f6157fb565b60008361ffff168560010161ffff16816151a557fe5b0661ffff169050600060018561ffff16830103905060005b506002818301048961ffff871682816151d257fe5b0661ffff81106151de57fe5b60408051608081018252929091015463ffffffff81168352600160201b8104600690810b810b900b60208401526001600160a01b03600160581b8204169183019190915260ff600160f81b90910416151560608201819052909550615248578060010192506151bd565b898661ffff16826001018161525957fe5b0661ffff811061526557fe5b60408051608081018252929091015463ffffffff81168352600160201b8104600690810b810b900b60208401526001600160a01b03600160581b8204169183019190915260ff600160f81b909104161515606082015285519094506000906152cf908b908b6150be565b90508080156152e857506152e88a8a87600001516150be565b156152f35750615310565b806153035760018203925061530a565b8160010193505b506151bd565b5050509550959350505050565b60028a810b900b600090815260208c90526040812080546001600160801b031682615348828d613892565b9050846001600160801b0316816001600160801b03161115615396576040805162461bcd60e51b81526020600482015260026024820152614c4f60f01b604482015290519081900360640190fd5b6001600160801b03828116159082161581141594501561543b578c60020b8e60020b1361542357600183018b9055600283018a9055600383018054600160381b600160d81b031916600160381b6001600160a01b038c16021766ffffffffffffff191666ffffffffffffff60068b900b161763ffffffff60d81b1916600160d81b63ffffffff8a16021790555b6003830180546001600160f81b0316600160f81b1790555b82546001600160801b0319166001600160801b0382161783558561548457825461547f9061547a90600160801b9004600f90810b810b908f900b61355c565b61418a565b6154a5565b82546154a59061547a90600160801b9004600f90810b810b908f900b613540565b8354600f9190910b6001600160801b03908116600160801b0291161790925550909c9b505050505050505050505050565b8060020b8260020b816154e557fe5b0760020b156154f357600080fd5b60008061550e8360020b8560020b8161550857fe5b056146d7565b600191820b820b60009081526020979097526040909620805460ff9097169190911b90951890945550505050565b600285810b80820b60009081526020899052604080822088850b850b83529082209193849391929184918291908a900b1261558257505060018201546002830154615595565b8360010154880391508360020154870390505b6000808b60020b8b60020b12156155b7575050600183015460028401546155ca565b84600101548a0391508460020154890390505b92909803979097039b96909503949094039850939650505050505050565b6040805160a08101825285546001600160801b0390811682526001870154602083015260028701549282019290925260038601548083166060830152600160801b900490911660808201526000600f85900b6156875781516001600160801b031661567f576040805162461bcd60e51b815260206004820152600260248201526104e560f41b604482015290519081900360640190fd5b508051615696565b81516156939086613892565b90505b60006156ba8360200151860384600001516001600160801b0316600160801b613596565b905060006156e08460400151860385600001516001600160801b0316600160801b613596565b905086600f0b6000146157075787546001600160801b0319166001600160801b0384161788555b60018801869055600288018590556001600160801b03821615158061573557506000816001600160801b0316115b15615773576003880180546001600160801b031981166001600160801b039182168501821617808216600160801b9182900483168501909216021790555b5050505050505050565b600290810b810b6000908152602092909252604082208281556001810183905590810182905560030155565b806001600160a01b0381168114612ec657600080fd5b6040805160e081018252600080825260208201819052918101829052606081018290526080810182905260a0810182905260c081019190915290565b6040805160808101825260008082526020820181905291810182905260608101919091529056fea164736f6c6343000706000aa164736f6c6343000706000a",
  "linkReferences": {},
  "deployedLinkReferences": {}
}